:1000000049C069C468C467C466C465C464C463C4C1
:1000100062C461C460C45FC45EC45DC45CC45BC4CC
:100020005AC459C458C457C456C455C454C446C30A
:1000300052C451C408000000BE922449123EABAA2B
:10004000AA2ABECDCCCC4C3E00000080BEABAAAAF2
:10005000AA3E00000000BF000000803F000000003A
:1000600000084178D3BB4387D1133D190E3CC3BD73
:100070004282AD2B3E68EC8276BED98FE1A93E4C20
:1000800080EFFFBE01C4FF7F3F00000000003F0083
:100090003F35800011241FBECFEFCDBFDFE3DEBFB1
:1000A000EEE8F0E040E017C0B591A59135912591BB
:1000B000059107FD0CC095918591EF01F92FE82F6F
:1000C00005900D92A217B307D9F7FE0104C01D9247
:1000D000A217B307E1F7E339F40731F774D300C08F
:0400E000F894FFCFC2
:1000E40010C00E94480458F00E94410440F029F4D2
:1000F4005F3F29F00C94560451110C9450040C9455
:1001040068040E94830368F39923B1F3552391F3A0
:10011400951B550BBB27AA2762177307840738F072
:100124009F5F5F4F220F331F441FAA1FA9F335D0CF
:100134000E2E3AF0E0E832D091505040E695001C83
:10014400CAF72BD0FE2F29D0660F771F881FBB1F3D
:10015400261737074807AB07B0E809F0BB0B802D1B
:10016400BF01FF2793585F4F3AF09E3F510578F047
:100174000C9456040C9450045F3FE4F3983ED4F37B
:10018400869577956795B795F7959F5FC9F7880F1B
:10019400911D9695879597F90895E1E0660F771F6D
:1001A400881FBB1F621773078407BA0720F0621BFE
:0E01B400730B840BBA0BEE1F88F7E0950895CD
:1001C2000FC00E94410438F00E94480420F0952399
:1001D20011F00C9456040C94680411240C945004ED
:1001E2000E94830370F3959FC1F3950F50E0551F52
:1001F200629FF001729FBB27F00DB11D639FAA277A
:10020200F00DB11DAA1F649F6627B00DA11D661FC8
:10021200829F2227B00DA11D621F739FB00DA11DE9
:10022200621F839FA00D611D221F749F3327A00DA3
:10023200611D231F849F600D211D822F762F6A2F3F
:1002420011249F5750409AF0F1F088234AF0EE0FA4
:10025200FF1FBB1F661F771F881F91505040A9F7D1
:100262009E3F510580F00C9456040C9450045F3F5D
:10027200E4F3983ED4F3869577956795B795F7950D
:10028200E7959F5FC1F7FE2B880F911D9695879585
:0402920097F908953B
:1002960011C00E94410438F00E94480420F039F44D
:1002A6009F3F19F426F40C9468040EF4E095E7FBDE
:1002B6000C945604E92F0E94830358F3BA17620779
:1002C60073078407950720F079F4A6F50C944F047C
:1002D6000EF4E0950B2EBA2FA02D0B01B90190015B
:1002E6000C01CA01A0011124FF27591B99F0593F9F
:1002F60050F4503E68F11A16F040A22F232F342FE7
:100306004427585FF3CF469537952795A795F04034
:100316005395C9F77EF41F16BA0B620B730B840B49
:10032600BAF09150A1F0FF0FBB1F661F771F881F01
:10033600C2F70EC0BA0F621F731F841F48F4879559
:1003460077956795B795F7959E3F08F0B0CF93954B
:0E035600880F08F09927EE0F97958795089568
:100364008F929F92AF92BF92CF92DF92EF92FF92C1
:10037400CF93DF93809108068111FCCFE0E0F6E093
:10038400C088D18881E086838087CAE1DFE38C80DE
:100394009D80AE80BF80E12CF12CC701B60196D0C0
:1003A4009B01AC01C501B4018DD24B015C0180EC11
:1003B4009FEFA0E0B0E0BC01CD016C197D098E096E
:1003C4009F0986D09B01AC01C501B40177D2C884D2
:1003D400D984EA84FB842C893D894E895F8972D251
:1003E40024D09B01AC01C701B60168D22C853D85A0
:1003F4004E855F8536D220E030E046E953E4C2D131
:1004040020E030E048EC52E45DD232D26093343FD5
:100414007093353FDF91CF91FF90EF90DF90CF90B5
:0A042400BF90AF909F908F90089555
:10042E0008C016F00C9425040C94680468940C947F
:10043E0056040E948B03A8F39923C1F3AEF3DF9306
:10044E00CF931F930F93FF92C92FDD2788232AF096
:10045E002197660F771F881FDAF720E030E040E81B
:10046E005FEB9FE3883920F0803E38F021968F773E
:10047E000E943404E4E3F0E004C00E943404E1E698
:10048E00F0E00E9437038B01BE01EC01FB2E6F578B
:10049E0071097595771F880B990B0E946A0228E1E6
:1004AE0032E741E35FE30E94E100AF2D9801AE0118
:1004BE00FF900F911F91CF91DF910E944B010C94F1
:0204CE00140414
:1004D000E89409C097FB3EF49095809570956195DE
:1004E0007F4F8F4F9F4F9923A9F0F92F96E9BB2794
:1004F0009395F695879577956795B795F111F8CF10
:10050000FAF4BB0F11F460FF1BC06F5F7F4F8F4F7A
:100510009F4F16C0882311F096E911C0772321F070
:100520009EE8872F762F05C0662371F096E8862F08
:1005300070E060E02AF09A95660F771F881FDAF75F
:0A054000880F9695879597F90895A6
:10054A00E0E0F6E082E1828386E0818381E08083D5
:10055A00EAE1FFE3108211821282138280E090EEB8
:10056A00A2E9B5E484839583A683B78380E090E704
:10057A00A0E8B5E480879187A287B38783E393E9EC
:10058A00A8E8B3E484879587A687B78780E090E4D4
:10059A00ACE1B6E4808B918BA28BB38B82ED9DEF9D
:0E05AA00A1ECB2E4848B958BA68BB78B0895E1
:1005B8000E948B0388F09F5798F0B92F9927B7515D
:1005C800B0F0E1F0660F771F881F991F1AF0BA95EF
:1005D800C9F714C0B13091F00E944F04B1E00895FA
:1005E8000C944F04672F782F8827B85F39F0B93FEC
:1005F800CCF3869577956795B395D9F73EF49095A2
:0E0608008095709561957F4F8F4F9F4F08959D
:10061600E0E0FAE081E0838390E1918393E697A39B
:1006260011A6808388E08093010483EC99E001970A
:10063600F1F700C000000BC0E0E0FAE081A58F5F93
:1006460081A783EC99E00197F1F700C00000E0E094
:10065600FAE021A530E087A190E00196959587956F
:08066600281739074CF3089531
:10066E00DF93CF931F930F93FF92EF92DF927B0155
:10067E008C01689406C0DA2EEF010E94E100FE01A3
:10068E00E894A5912591359145915591A6F3EF01E9
:10069E000E944B01FE019701A801DA9469F7DF90E1
:0E06AE00EF90FF900F911F91CF91DF91089573
:1006BC001F920F920FB60F9211248F939F93EF936B
:1006CC00FF938091343FE82FF0E0ED5FF04C908188
:1006DC00909302088F5F8093343F8B3029F4E0E0D5
:1006EC00F8E085818F7D8583FF91EF919F918F91AC
:0A06FC000F900FBE0F901F9018958D
:1007060057FD9058440F551F59F05F3F71F04795BC
:10071600880F97FB991F61F09F3F79F087950895A1
:10072600121613061406551FF2CF4695F1DF08C0C0
:10073600161617061806991FF1CF869571056105DD
:040746000894089576
:10074A00B6D0E0E0F8E080E48087118680E8809304
:10075A00050882EC80930608E0E4FAE081E08083F1
:10076A00818328EC30E024873587858381E184837F
:0E077A00E0E8F1E086E0828B88E0808308955D
:10078800990FBB0B550FAA0BE0E8FEEF16161706DC
:10079800E807F90770F012161306E407F50760F08A
:1007A800BA1754F031F42617370748075907A795A1
:0E07B8001BF4B901CA01BA2FB69597950895A2
:1007C60088ED84BFE0E6F0E0108284BF81E081839B
:1007D6001FDFB8DFB7DE7894C2DDF89488E0E2E385
:1007E600FFE3AFE0BFE301900D928A95E1F77894BD
:0207F600F3CF3F
:1007F8008091193F482F417050E086E094E0FC0159
:10080800E41BF50B44E040834091193F41FB22274C
:1008180020F930E0FC01E21BF30B28E02083089567
:10082800092E0394000C11F4882352F0BB0F40F4F6
:10083800BF2B11F460FF04C06F5F7F4F8F4F9F4F36
:02084800089511
:10084A009F3F31F0915020F4879577956795B7953A
:0C085A00880F911D9695879597F90895D9
:0E0866005058BB27AA270E944B010C94140483
:0E0874000E94DC026894B1110C9450040895A7
:0E08820000240A941616170618060906089593
:0E08900000240A941216130614060506089595
:0E089E00E894BB2766277727CB0197F90895CA
:0C08AC0097F99F6780E870E060E0089515
:0808B8001092193F9DDF089525
:0808C0000E9472000C94140464
:0808C8000E94E1000C941404ED
:0608D0009FEF80EC08958B
:0208D60094CBC1
:00000001FF
